NY000010000000000827901000080802708200910000000000000000000000000000000000000000
NY420320000000000082790200000000000NOR938587051-10000000000000000000000000000000
NY4203300000001200909           00000000000296500        00050137016000084000000
NY4203310000001                                                            00000
NY42034000000011LEVANGER KOMMUNE              7601   LEVANGER                 00
NY42034100000011Økonomiavdelinga              POSTBOKS 130                     0
NY42034000000012JENSSEN KARIN TAARNEBY        7600   LEVANGER                 00
NY42034100000012SØRVEGEN 22                                                    0
NY420334000000120.09.2009            2.965,00Faktura                            
NY420335000000100050137                       0020LEVANGER KOMMUNE              
NY4203360000001016294486                24.08.200944200601405NO 938 587 051 MVA0
NY420349000000110011Beløp til forfall                       00000000000000000000
NY420349000000110012                                        00000000000000000000
NY420349000000110013                                        00000000000000000000
NY420349000000110021Forfallsdato                            00000000000000000000
NY420349000000110022                                        00000000000000000000
NY420349000000110023                                        00000000000000000000
NY420349000000110031Fakturadato                             00000000000000000000
NY420349000000110032                                        00000000000000000000
NY420349000000110033                                        00000000000000000000
NY420349000000110041Fakturanummer                           00000000000000000000
NY420349000000110042                                        00000000000000000000
NY420349000000110043                                        00000000000000000000
NY420349000000120011Oppdragsgiver                           00000000000000000000
NY420349000000120012EIENDOMSGEBYR/-SKATT                    00000000000000000000
NY420349000000120013                                        00000000000000000000
NY420349000000120021Oppdragsgivers telefonnr.:              00000000000000000000
NY42034900000012002274052500                                00000000000000000000
NY420349000000120023                                        00000000000000000000
NY420349000000120031Termin                                  00000000000000000000
NY4203490000001200323/2009                                  00000000000000000000
NY420349000000120033                                        00000000000000000000
NY420349000000120041Gårds- og bruksnr.:                     00000000000000000000
NY420349000000120042275/ 650/    /    /   1                 00000000000000000000
NY420349000000120043                                        00000000000000000000
NY420349000000120051                                        00000000000000000000
NY420349000000120052SØRVEGEN 22                             00000000000000000000
NY420349000000120053                                        00000000000000000000
NY420349000000130011                                        00000000000000000000
NY420349000000130012                                        00000000000000000000
NY420349000000130013                                        00000000000000000000
NY420349000000130021                                        00000000000000000000
NY420349000000130022                                        00000000000000000000
NY420349000000130023                                        00000000000000000000
NY420349000000130031                                        00000000000000000000
NY420349000000130032                                        00000000000000000000
NY420349000000130033                                        00000000000000000000
NY420349000000130041                                        00000000000000000000
NY420349000000130042                                        00000000000000000000
NY420349000000130043                                        00000000000000000000
NY420349000000140011Fakturakunde                            00000000000000000000
NY420349000000140012                                        00000000000000000000
NY420349000000140013                                        00000000000000000000
NY420349000000140031Varenavn                           Pris 00000000000000000000
NY420349000000140032     Grunnlag    Årsbeløp   Terminbeløp 00000000000000000000
NY420349000000140033                                        00000000000000000000
NY420349000000150011VANN FASTGEBYR                   500,00 00000000000000000000
NY420349000000150012         1,00       500,00       166,67*00000000000000000000
NY420349000000150013                                        00000000000000000000
NY420349000000150021VANN AKONTO                       10,50 00000000000000000000
NY420349000000150022       120,00      1260,00       420,00*00000000000000000000
NY420349000000150023                                        00000000000000000000
NY420349000000150031AVLØP FASTGEBYR                  600,00 00000000000000000000
NY420349000000150032         1,00       600,00       200,00*00000000000000000000
NY420349000000150033                                        00000000000000000000
NY420349000000150041AVLØP AKONTO                      15,60 00000000000000000000
NY420349000000150042       120,00      1872,00       624,00*00000000000000000000
NY420349000000150043                                        00000000000000000000
NY420349000000150051EIENDOMSSKATT                      3,50 00000000000000000000
NY420349000000150052   1030000,00      3605,00      1201,67 00000000000000000000
NY420349000000150053                                        00000000000000000000
NY42034900000015006125% MVA AV KR. 1.410,67 (MERKET *) 352,600000000000000000000
NY4203490000001500627                                       00000000000000000000
NY420349000000150063                                        00000000000000000000
NY420349000000160011Dersom annen betalingsform benyttes, ven00000000000000000000
NY420349000000160012nligst benytt kontonr: 4420 06 01405    00000000000000000000
NY420349000000160013                                        00000000000000000000
NY420349000000160021og vennligst oppgi følgende KID-nummer: 00000000000000000000
NY420349000000160022        00050137016000084               00000000000000000000
NY420349000000160023                                        00000000000000000000
NY4203300000002200909           00000000000045800        00050141016000086000000
NY4203310000002                                                            00000
NY42034000000021LEVANGER KOMMUNE              7601   LEVANGER                 00
NY42034100000021Økonomiavdelinga              POSTBOKS 130                     0
NY42034000000022KNUDSEN MARGARETH             7620   SKOGN                    00
NY42034100000022BYÅSVEGEN 16                                                   0
NY420334000000220.09.2009              458,00Faktura                            
NY420335000000200050141                       0020LEVANGER KOMMUNE              
NY4203360000002016291743                24.08.200944200601405NO 938 587 051 MVA0
NY420349000000210011Beløp til forfall                       00000000000000000000
NY420349000000210012                                        00000000000000000000
NY420349000000210013                                        00000000000000000000
NY420349000000210021Forfallsdato                            00000000000000000000
NY420349000000210022                                        00000000000000000000
NY420349000000210023                                        00000000000000000000
NY420349000000210031Fakturadato                             00000000000000000000
NY420349000000210032                                        00000000000000000000
NY420349000000210033                                        00000000000000000000
NY420349000000210041Fakturanummer                           00000000000000000000
NY420349000000210042                                        00000000000000000000
NY420349000000210043                                        00000000000000000000
NY420349000000220011Oppdragsgiver                           00000000000000000000
NY420349000000220012EIENDOMSGEBYR/-SKATT                    00000000000000000000
NY420349000000220013                                        00000000000000000000
NY420349000000220021Oppdragsgivers telefonnr.:              00000000000000000000
NY42034900000022002274052500                                00000000000000000000
NY420349000000220023                                        00000000000000000000
NY420349000000220031Termin                                  00000000000000000000
NY4203490000002200323/2009                                  00000000000000000000
NY420349000000220033                                        00000000000000000000
NY420349000000220041Gårds- og bruksnr.:                     00000000000000000000
NY420349000000220042162/  21/    /    /   1                 00000000000000000000
NY420349000000220043                                        00000000000000000000
NY420349000000220051                                        00000000000000000000
NY420349000000220052                                        00000000000000000000
NY420349000000220053                                        00000000000000000000
NY420349000000230011                                        00000000000000000000
NY420349000000230012                                        00000000000000000000
NY420349000000230013                                        00000000000000000000
NY420349000000230021                                        00000000000000000000
NY420349000000230022                                        00000000000000000000
NY420349000000230023                                        00000000000000000000
NY420349000000230031                                        00000000000000000000
NY420349000000230032                                        00000000000000000000
NY420349000000230033                                        00000000000000000000
NY420349000000230041                                        00000000000000000000
NY420349000000230042                                        00000000000000000000
NY420349000000230043                                        00000000000000000000
NY420349000000240011Fakturakunde                            00000000000000000000
NY420349000000240012                                        00000000000000000000
NY420349000000240013                                        00000000000000000000
NY420349000000240031Varenavn                           Pris 00000000000000000000
NY420349000000240032     Grunnlag    Årsbeløp   Terminbeløp 00000000000000000000
NY420349000000240033                                        00000000000000000000
NY420349000000250011EIENDOMSSKATT                      0,00 00000000000000000000
NY420349000000250012         0,00         0,00       458,50 00000000000000000000
NY420349000000250013                                        00000000000000000000
NY420349000000250021      393 000,00 Taks     3,50   1/1 01000000000000000000000
NY420349000000250022909-311209                              00000000000000000000
NY420349000000250023                                        00000000000000000000
NY420349000000260011Dersom annen betalingsform benyttes, ven00000000000000000000
NY420349000000260012nligst benytt kontonr: 4420 06 01405    00000000000000000000
NY420349000000260013                                        00000000000000000000
NY420349000000260021og vennligst oppgi følgende KID-nummer: 00000000000000000000
NY420349000000260022        00050141016000086               00000000000000000000
NY420349000000260023                                        00000000000000000000
NY4203300000003200909           00000000000122500        00050350016000109000000
NY4203310000003                                                            00000
NY42034000000031LEVANGER KOMMUNE              7601   LEVANGER                 00
NY42034100000031Økonomiavdelinga              POSTBOKS 130                     0
NY42034000000032AMDAHL ODD ANDERS             7600   LEVANGER                 00
NY42034100000032                              SKÅNES                           0
NY420334000000320.09.2009            1.225,00Faktura                            
NY420335000000300050350                       0020LEVANGER KOMMUNE              
NY4203360000003016293541                24.08.200944200601405NO 938 587 051 MVA0
NY420349000000310011Beløp til forfall                       00000000000000000000
NY420349000000310012                                        00000000000000000000
NY420349000000310013                                        00000000000000000000
NY420349000000310021Forfallsdato                            00000000000000000000
NY420349000000310022                                        00000000000000000000
NY420349000000310023                                        00000000000000000000
NY420349000000310031Fakturadato                             00000000000000000000
NY420349000000310032                                        00000000000000000000
NY420349000000310033                                        00000000000000000000
NY420349000000310041Fakturanummer                           00000000000000000000
NY420349000000310042                                        00000000000000000000
NY420349000000310043                                        00000000000000000000
NY420349000000320011Oppdragsgiver                           00000000000000000000
NY420349000000320012EIENDOMSGEBYR/-SKATT                    00000000000000000000
NY420349000000320013                                        00000000000000000000
NY420349000000320021Oppdragsgivers telefonnr.:              00000000000000000000
NY42034900000032002274052500                                00000000000000000000
NY420349000000320023                                        00000000000000000000
NY420349000000320031Termin                                  00000000000000000000
NY4203490000003200323/2009                                  00000000000000000000
NY420349000000320033                                        00000000000000000000
NY420349000000320041Gårds- og bruksnr.:                     00000000000000000000
NY420349000000320042263/   1/    /    /   1                 00000000000000000000
NY420349000000320043                                        00000000000000000000
NY420349000000320051                                        00000000000000000000
NY420349000000320052SKÅNES MULE                             00000000000000000000
NY420349000000320053                                        00000000000000000000
NY420349000000330011                                        00000000000000000000
NY420349000000330012                                        00000000000000000000
NY420349000000330013                                        00000000000000000000
NY420349000000330021                                        00000000000000000000
NY420349000000330022                                        00000000000000000000
NY420349000000330023                                        00000000000000000000
NY420349000000330031                                        00000000000000000000
NY420349000000330032                                        00000000000000000000
NY420349000000330033                                        00000000000000000000
NY420349000000330041                                        00000000000000000000
NY420349000000330042                                        00000000000000000000
NY420349000000330043                                        00000000000000000000
NY420349000000340011Fakturakunde                            00000000000000000000
NY420349000000340012                                        00000000000000000000
NY420349000000340013                                        00000000000000000000
NY420349000000340031Varenavn                           Pris 00000000000000000000
NY420349000000340032     Grunnlag    Årsbeløp   Terminbeløp 00000000000000000000
NY420349000000340033                                        00000000000000000000
NY420349000000350011EIENDOMSSKATT                      3,50 00000000000000000000
NY420349000000350012   1050000,00      3675,00      1225,00 00000000000000000000
NY420349000000350013                                        00000000000000000000
NY420349000000360011Dersom annen betalingsform benyttes, ven00000000000000000000
NY420349000000360012nligst benytt kontonr: 4420 06 01405    00000000000000000000
NY420349000000360013                                        00000000000000000000
NY420349000000360021og vennligst oppgi følgende KID-nummer: 00000000000000000000
NY420349000000360022        00050350016000109               00000000000000000000
NY420349000000360023                                        00000000000000000000
NY4203300000004200909           00000000000240200        00050354016000119000000
NY4203310000004                                                            00000
NY42034000000041LEVANGER KOMMUNE              7601   LEVANGER                 00
NY42034100000041Økonomiavdelinga              POSTBOKS 130                     0
NY42034000000042AGLEN BERNT JOHANNES          7601   LEVANGER                 00
NY42034100000042POSTBOKS 57                                                    0
NY420334000000420.09.2009            2.402,00Faktura                            
NY420335000000400050354                       0020LEVANGER KOMMUNE              
NY4203360000004016294054                24.08.200944200601405NO 938 587 051 MVA0
NY420349000000410011Beløp til forfall                       00000000000000000000
NY420349000000410012                                        00000000000000000000
NY420349000000410013                                        00000000000000000000
NY420349000000410021Forfallsdato                            00000000000000000000
NY420349000000410022                                        00000000000000000000
NY420349000000410023                                        00000000000000000000
NY420349000000410031Fakturadato                             00000000000000000000
NY420349000000410032                                        00000000000000000000
NY420349000000410033                                        00000000000000000000
NY420349000000410041Fakturanummer                           00000000000000000000
NY420349000000410042                                        00000000000000000000
NY420349000000410043                                        00000000000000000000
NY420349000000420011Oppdragsgiver                           00000000000000000000
NY420349000000420012EIENDOMSGEBYR/-SKATT                    00000000000000000000
NY420349000000420013                                        00000000000000000000
NY420349000000420021Oppdragsgivers telefonnr.:              00000000000000000000
NY42034900000042002274052500                                00000000000000000000
NY420349000000420023                                        00000000000000000000
NY420349000000420031Termin                                  00000000000000000000
NY4203490000004200323/2009                                  00000000000000000000
NY420349000000420033                                        00000000000000000000
NY420349000000420041Gårds- og bruksnr.:                     00000000000000000000
NY420349000000420042275/ 151/    /    /   1                 00000000000000000000
NY420349000000420043                                        00000000000000000000
NY420349000000420051                                        00000000000000000000
NY420349000000420052JAMTVEGEN  2                            00000000000000000000
NY420349000000420053                                        00000000000000000000
NY420349000000430011                                        00000000000000000000
NY420349000000430012                                        00000000000000000000
NY420349000000430013                                        00000000000000000000
NY420349000000430021                                        00000000000000000000
NY420349000000430022                                        00000000000000000000
NY420349000000430023                                        00000000000000000000
NY420349000000430031                                        00000000000000000000
NY420349000000430032                                        00000000000000000000
NY420349000000430033                                        00000000000000000000
NY420349000000430041                                        00000000000000000000
NY420349000000430042                                        00000000000000000000
NY420349000000430043                                        00000000000000000000
NY420349000000440011Fakturakunde                            00000000000000000000
NY420349000000440012                                        00000000000000000000
NY420349000000440013                                        00000000000000000000
NY420349000000440031Varenavn                           Pris 00000000000000000000
NY420349000000440032     Grunnlag    Årsbeløp   Terminbeløp 00000000000000000000
NY420349000000440033                                        00000000000000000000
NY420349000000450011VANN FASTGEBYR                   500,00 00000000000000000000
NY420349000000450012         1,00       500,00       166,67*00000000000000000000
NY420349000000450013                                        00000000000000000000
NY420349000000450021VANN AKONTO                       10,50 00000000000000000000
NY420349000000450022        80,00       840,00       280,00*00000000000000000000
NY420349000000450023                                        00000000000000000000
NY420349000000450031AVLØP FASTGEBYR                  600,00 00000000000000000000
NY420349000000450032         1,00       600,00       200,00*00000000000000000000
NY420349000000450033                                        00000000000000000000
NY420349000000450041AVLØP AKONTO                      15,60 00000000000000000000
NY420349000000450042        80,00      1248,00       416,00*00000000000000000000
NY420349000000450043                                        00000000000000000000
NY420349000000450051EIENDOMSSKATT                      3,50 00000000000000000000
NY420349000000450052    921000,00      3223,50      1074,50 00000000000000000000
NY420349000000450053                                        00000000000000000000
NY42034900000045006125% MVA AV KR. 1.062,67 (MERKET *) 265,600000000000000000000
NY4203490000004500627                                       00000000000000000000
NY420349000000450063                                        00000000000000000000
NY420349000000460011Dersom annen betalingsform benyttes, ven00000000000000000000
NY420349000000460012nligst benytt kontonr: 4420 06 01405    00000000000000000000
NY420349000000460013                                        00000000000000000000
NY420349000000460021og vennligst oppgi følgende KID-nummer: 00000000000000000000
NY420349000000460022        00050354016000119               00000000000000000000
NY420349000000460023                                        00000000000000000000
NY4203300000005200909           00000000000234300        00050358016000185000000
NY4203310000005                                                            00000
NY42034000000051LEVANGER KOMMUNE              7601   LEVANGER                 00
NY42034100000051Økonomiavdelinga              POSTBOKS 130                     0
NY42034000000052ALFNES INGAR ÅGE              7619   SKOGN                    00
NY42034100000052                              POSTBOKS 147                     0
NY420334000000520.09.2009            2.343,00Faktura                            
NY420335000000500050358                       0020LEVANGER KOMMUNE              
NY4203360000005016289762                24.08.200944200601405NO 938 587 051 MVA0
NY420349000000510011Beløp til forfall                       00000000000000000000
NY420349000000510012                                        00000000000000000000
NY420349000000510013                                        00000000000000000000
NY420349000000510021Forfallsdato                            00000000000000000000
NY420349000000510022                                        00000000000000000000
NY420349000000510023                                        00000000000000000000
NY420349000000510031Fakturadato                             00000000000000000000
NY420349000000510032                                        00000000000000000000
NY420349000000510033                                        00000000000000000000
NY420349000000510041Fakturanummer                           00000000000000000000
NY420349000000510042                                        00000000000000000000
NY420349000000510043                                        00000000000000000000
NY420349000000520011Oppdragsgiver                           00000000000000000000
NY420349000000520012EIENDOMSGEBYR/-SKATT                    00000000000000000000
NY420349000000520013                                        00000000000000000000
NY420349000000520021Oppdragsgivers telefonnr.:              00000000000000000000
NY42034900000052002274052500                                00000000000000000000
NY420349000000520023                                        00000000000000000000
NY420349000000520031Termin                                  00000000000000000000
NY4203490000005200323/2009                                  00000000000000000000
NY420349000000520033                                        00000000000000000000
NY420349000000520041Gårds- og bruksnr.:                     00000000000000000000
NY42034900000052004222/  43/    /    /   1                  00000000000000000000
NY420349000000520043                                        00000000000000000000
NY420349000000520051                                        00000000000000000000
NY420349000000520052SJØLYST                                 00000000000000000000
NY420349000000520053                                        00000000000000000000
NY420349000000530011                                        00000000000000000000
NY420349000000530012                                        00000000000000000000
NY420349000000530013                                        00000000000000000000
NY420349000000530021                                        00000000000000000000
NY420349000000530022                                        00000000000000000000
NY420349000000530023                                        00000000000000000000
NY420349000000530031                                        00000000000000000000
NY420349000000530032                                        00000000000000000000
NY420349000000530033                                        00000000000000000000
NY420349000000530041                                        00000000000000000000
NY420349000000530042                                        00000000000000000000
NY420349000000530043                                        00000000000000000000
NY420349000000540011Fakturakunde                            00000000000000000000
NY420349000000540012                                        00000000000000000000
NY420349000000540013                                        00000000000000000000
NY420349000000540031Varenavn                           Pris 00000000000000000000
NY420349000000540032     Grunnlag    Årsbeløp   Terminbeløp 00000000000000000000
NY420349000000540033                                        00000000000000000000
NY420349000000550011VANN AREAL                        10,50 00000000000000000000
NY420349000000550012       255,00      2677,50       892,50*00000000000000000000
NY420349000000550013                                        00000000000000000000
NY420349000000550021VANN FASTGEBYR                   500,00 00000000000000000000
NY420349000000550022         1,00       500,00       166,67*00000000000000000000
NY420349000000550023                                        00000000000000000000
NY420349000000550031EIENDOMSSKATT                      3,50 00000000000000000000
NY420349000000550032    874000,00      3059,00      1019,67 00000000000000000000
NY420349000000550033                                        00000000000000000000
NY42034900000055004125% MVA AV KR. 1.059,17 (MERKET *) 264,800000000000000000000
NY4203490000005500420                                       00000000000000000000
NY420349000000550043                                        00000000000000000000
NY420349000000560011Dersom annen betalingsform benyttes, ven00000000000000000000
NY420349000000560012nligst benytt kontonr: 4420 06 01405    00000000000000000000
NY420349000000560013                                        00000000000000000000
NY420349000000560021og vennligst oppgi følgende KID-nummer: 00000000000000000000
NY420349000000560022        00050358016000185               00000000000000000000
NY420349000000560023                                        00000000000000000000
NY4203300000006200909           00000000000030100        00050358016000193000000
NY4203310000006                                                            00000
NY42034000000061LEVANGER KOMMUNE              7601   LEVANGER                 00
NY42034100000061Økonomiavdelinga              POSTBOKS 130                     0
NY42034000000062ALFNES INGAR ÅGE              7619   SKOGN                    00
NY42034100000062                              POSTBOKS 147                     0
NY420334000000620.09.2009              301,00Faktura                            
NY420335000000600050358                       0020LEVANGER KOMMUNE              
NY4203360000006016296749                24.08.200944200601405NO 938 587 051 MVA0
NY420349000000610011Beløp til forfall                       00000000000000000000
NY420349000000610012                                        00000000000000000000
NY420349000000610013                                        00000000000000000000
NY420349000000610021Forfallsdato                            00000000000000000000
NY420349000000610022                                        00000000000000000000
NY420349000000610023                                        00000000000000000000
NY420349000000610031Fakturadato                             00000000000000000000
NY420349000000610032                                        00000000000000000000
NY420349000000610033                                        00000000000000000000
NY420349000000610041Fakturanummer                           00000000000000000000
NY420349000000610042                                        00000000000000000000
NY420349000000610043                                        00000000000000000000
NY420349000000620011Oppdragsgiver                           00000000000000000000
NY420349000000620012EIENDOMSGEBYR/-SKATT                    00000000000000000000
NY420349000000620013                                        00000000000000000000
NY420349000000620021Oppdragsgivers telefonnr.:              00000000000000000000
NY42034900000062002274052500                                00000000000000000000
NY420349000000620023                                        00000000000000000000
NY420349000000620031Termin                                  00000000000000000000
NY4203490000006200323/2009                                  00000000000000000000
NY420349000000620033                                        00000000000000000000
NY420349000000620041Gårds- og bruksnr.:                     00000000000000000000
NY420349000000620042371/   1/   4/    /   1                 00000000000000000000
NY420349000000620043                                        00000000000000000000
NY420349000000620051                                        00000000000000000000
NY420349000000620052                                        00000000000000000000
NY420349000000620053                                        00000000000000000000
NY420349000000630011                                        00000000000000000000
NY420349000000630012                                        00000000000000000000
NY420349000000630013                                        00000000000000000000
NY420349000000630021                                        00000000000000000000
NY420349000000630022                                        00000000000000000000
NY420349000000630023                                        00000000000000000000
NY420349000000630031                                        00000000000000000000
NY420349000000630032                                        00000000000000000000
NY420349000000630033                                        00000000000000000000
NY420349000000630041                                        00000000000000000000
NY420349000000630042                                        00000000000000000000
NY420349000000630043                                        00000000000000000000
NY420349000000640011Fakturakunde                            00000000000000000000
NY420349000000640012                                        00000000000000000000
NY420349000000640013                                        00000000000000000000
NY420349000000640031Varenavn                           Pris 00000000000000000000
NY420349000000640032     Grunnlag    Årsbeløp   Terminbeløp 00000000000000000000
NY420349000000640033                                        00000000000000000000
NY420349000000650011EIENDOMSSKATT                      0,00 00000000000000000000
NY420349000000650012         0,00         0,00       301,00 00000000000000000000
NY420349000000650013                                        00000000000000000000
NY420349000000650021      258 000,00 Taks     3,50   1/1 01000000000000000000000
NY420349000000650022909-311209                              00000000000000000000
NY420349000000650023                                        00000000000000000000
NY420349000000660011Dersom annen betalingsform benyttes, ven00000000000000000000
NY420349000000660012nligst benytt kontonr: 4420 06 01405    00000000000000000000
NY420349000000660013                                        00000000000000000000
NY420349000000660021og vennligst oppgi følgende KID-nummer: 00000000000000000000
NY420349000000660022        00050358016000193               00000000000000000000
NY420349000000660023                                        00000000000000000000
NY4203300000007200909           00000000000227500        00050372016000129000000
NY4203310000007                                                            00000
NY42034000000071LEVANGER KOMMUNE              7601   LEVANGER                 00
NY42034100000071Økonomiavdelinga              POSTBOKS 130                     0
NY42034000000072ALMAAS ASGEIR                 7623   RONGLAN                  00
NY42034100000072PINENGA 2                                                      0
NY420334000000720.09.2009            2.275,00Faktura                            
NY420335000000700050372                       0020LEVANGER KOMMUNE              
NY4203360000007016290875                24.08.200944200601405NO 938 587 051 MVA0
NY420349000000710011Beløp til forfall                       00000000000000000000
NY420349000000710012                                        00000000000000000000
NY420349000000710013                                        00000000000000000000
NY420349000000710021Forfallsdato                            00000000000000000000
NY420349000000710022                                        00000000000000000000
NY420349000000710023                                        00000000000000000000
NY420349000000710031Fakturadato                             00000000000000000000
NY420349000000710032                                        00000000000000000000
NY420349000000710033                                        00000000000000000000
NY420349000000710041Fakturanummer                           00000000000000000000
NY420349000000710042                                        00000000000000000000
NY420349000000710043                                        00000000000000000000
NY420349000000720011Oppdragsgiver                           00000000000000000000
NY420349000000720012EIENDOMSGEBYR/-SKATT                    00000000000000000000
NY420349000000720013                                        00000000000000000000
NY420349000000720021Oppdragsgivers telefonnr.:              00000000000000000000
NY42034900000072002274052500                                00000000000000000000
NY420349000000720023                                        00000000000000000000
NY420349000000720031Termin                                  00000000000000000000
NY4203490000007200323/2009                                  00000000000000000000
NY420349000000720033                                        00000000000000000000
NY420349000000720041Gårds- og bruksnr.:                     00000000000000000000
NY42034900000072004273/  29/    /    /   1                  00000000000000000000
NY420349000000720043                                        00000000000000000000
NY420349000000720051                                        00000000000000000000
NY420349000000720052PINENGA  2                              00000000000000000000
NY420349000000720053                                        00000000000000000000
NY420349000000730011                                        00000000000000000000
NY420349000000730012                                        00000000000000000000
NY420349000000730013                                        00000000000000000000
NY420349000000730021                                        00000000000000000000
NY420349000000730022                                        00000000000000000000
NY420349000000730023                                        00000000000000000000
NY420349000000730031                                        00000000000000000000
NY420349000000730032                                        00000000000000000000
NY420349000000730033                                        00000000000000000000
NY420349000000730041                                        00000000000000000000
NY420349000000730042                                        00000000000000000000
NY420349000000730043                                        00000000000000000000
NY420349000000740011Fakturakunde                            00000000000000000000
NY420349000000740012                                        00000000000000000000
NY420349000000740013                                        00000000000000000000
NY420349000000740031Varenavn                           Pris 00000000000000000000
NY420349000000740032     Grunnlag    Årsbeløp   Terminbeløp 00000000000000000000
NY420349000000740033                                        00000000000000000000
NY420349000000750011VANN FASTGEBYR                   500,00 00000000000000000000
NY420349000000750012         1,00       500,00       166,67*00000000000000000000
NY420349000000750013                                        00000000000000000000
NY420349000000750021VANN AKONTO                       10,50 00000000000000000000
NY420349000000750022        70,00       735,00       245,00*00000000000000000000
NY420349000000750023                                        00000000000000000000
NY420349000000750031AVLØP FASTGEBYR                  600,00 00000000000000000000
NY420349000000750032         1,00       600,00       200,00*00000000000000000000
NY420349000000750033                                        00000000000000000000
NY420349000000750041AVLØP AKONTO                      15,60 00000000000000000000
NY420349000000750042        70,00      1092,00       364,00*00000000000000000000
NY420349000000750043                                        00000000000000000000
NY420349000000750051EIENDOMSSKATT                      0,00 00000000000000000000
NY420349000000750052         0,00         0,00      1055,83 00000000000000000000
NY420349000000750053                                        00000000000000000000
NY420349000000750061      905 000,00 Taks     3,50   1/1 01000000000000000000000
NY420349000000750062909-311209                              00000000000000000000
NY420349000000750063                                        00000000000000000000
NY42034900000075007125% MVA AV KR. 975,67 (MERKET *) 243,92 00000000000000000000
NY420349000000750072                                        00000000000000000000
NY420349000000750073                                        00000000000000000000
NY420349000000760011Dersom annen betalingsform benyttes, ven00000000000000000000
NY420349000000760012nligst benytt kontonr: 4420 06 01405    00000000000000000000
NY420349000000760013                                        00000000000000000000
NY420349000000760021og vennligst oppgi følgende KID-nummer: 00000000000000000000
NY420349000000760022        00050372016000129               00000000000000000000
NY420349000000760023                                        00000000000000000000
NY4203300000008200909           00000000000101000        00050372016000137000000
NY4203310000008                                                            00000
NY42034000000081LEVANGER KOMMUNE              7601   LEVANGER                 00
NY42034100000081Økonomiavdelinga              POSTBOKS 130                     0
NY42034000000082ALMAAS ASGEIR                 7623   RONGLAN                  00
NY42034100000082PINENGA 2                                                      0
NY420334000000820.09.2009            1.010,00Faktura                            
NY420335000000800050372                       0020LEVANGER KOMMUNE              
NY4203360000008016291241                24.08.200944200601405NO 938 587 051 MVA0
NY420349000000810011Beløp til forfall                       00000000000000000000
NY420349000000810012                                        00000000000000000000
NY420349000000810013                                        00000000000000000000
NY420349000000810021Forfallsdato                            00000000000000000000
NY420349000000810022                                        00000000000000000000
NY420349000000810023                                        00000000000000000000
NY420349000000810031Fakturadato                             00000000000000000000
NY420349000000810032                                        00000000000000000000
NY420349000000810033                                        00000000000000000000
NY420349000000810041Fakturanummer                           00000000000000000000
NY420349000000810042                                        00000000000000000000
NY420349000000810043                                        00000000000000000000
NY420349000000820011Oppdragsgiver                           00000000000000000000
NY420349000000820012EIENDOMSGEBYR/-SKATT                    00000000000000000000
NY420349000000820013                                        00000000000000000000
NY420349000000820021Oppdragsgivers telefonnr.:              00000000000000000000
NY42034900000082002274052500                                00000000000000000000
NY420349000000820023                                        00000000000000000000
NY420349000000820031Termin                                  00000000000000000000
NY4203490000008200323/2009                                  00000000000000000000
NY420349000000820033                                        00000000000000000000
NY420349000000820041Gårds- og bruksnr.:                     00000000000000000000
NY42034900000082004299/   1/ 255/    /   1                  00000000000000000000
NY420349000000820043                                        00000000000000000000
NY420349000000820051                                        00000000000000000000
NY4203490000008200521 255                                   00000000000000000000
NY420349000000820053                                        00000000000000000000
NY420349000000830011                                        00000000000000000000
NY420349000000830012                                        00000000000000000000
NY420349000000830013                                        00000000000000000000
NY420349000000830021                                        00000000000000000000
NY420349000000830022                                        00000000000000000000
NY420349000000830023                                        00000000000000000000
NY420349000000830031                                        00000000000000000000
NY420349000000830032                                        00000000000000000000
NY420349000000830033                                        00000000000000000000
NY420349000000830041                                        00000000000000000000
NY420349000000830042                                        00000000000000000000
NY420349000000830043                                        00000000000000000000
NY420349000000840011Fakturakunde                            00000000000000000000
NY420349000000840012                                        00000000000000000000
NY420349000000840013                                        00000000000000000000
NY420349000000840031Varenavn                           Pris 00000000000000000000
NY420349000000840032     Grunnlag    Årsbeløp   Terminbeløp 00000000000000000000
NY420349000000840033                                        00000000000000000000
NY420349000000850011EIENDOMSSKATT                      0,00 00000000000000000000
NY420349000000850012         0,00         0,00       337,17 00000000000000000000
NY420349000000850013                                        00000000000000000000
NY420349000000850021      289 000,00 Taks     3,50   1/1 01000000000000000000000
NY420349000000850022909-311209                              00000000000000000000
NY420349000000850023                                        00000000000000000000
NY420349000000850031ENDRING E-SKATT                    1,00 00000000000000000000
NY420349000000850032       673,00       673,00       673,00 00000000000000000000
NY420349000000850033                                        00000000000000000000
NY42034900000085004101.01-31.08                             00000000000000000000
NY420349000000850042                                        00000000000000000000
NY420349000000850043                                        00000000000000000000
NY420349000000860011Dersom annen betalingsform benyttes, ven00000000000000000000
NY420349000000860012nligst benytt kontonr: 4420 06 01405    00000000000000000000
NY420349000000860013                                        00000000000000000000
NY420349000000860021og vennligst oppgi følgende KID-nummer: 00000000000000000000
NY420349000000860022        00050372016000137               00000000000000000000
NY420349000000860023                                        00000000000000000000
NY4203300000009200909           00000000000197700        00050373016000119000000
NY4203310000009                                                            00000
NY42034000000091LEVANGER KOMMUNE              7601   LEVANGER                 00
NY42034100000091Økonomiavdelinga              POSTBOKS 130                     0
NY42034000000092ALMAAS JOSTEIN RAGNAR         7620   SKOGN                    00
NY42034100000092FJORDVEGEN 13                 FJORDVEGEN 13                    0
NY420334000000920.09.2009            1.977,00Faktura                            
NY420335000000900050373                       1020LEVANGER KOMMUNE              
NY4203360000009016290149                24.08.200944200601405NO 938 587 051 MVA0
NY420349000000910011Beløp til forfall                       00000000000000000000
NY420349000000910012                                        00000000000000000000
NY420349000000910013                                        00000000000000000000
NY420349000000910021Forfallsdato                            00000000000000000000
NY420349000000910022                                        00000000000000000000
NY420349000000910023                                        00000000000000000000
NY420349000000910031Fakturadato                             00000000000000000000
NY420349000000910032                                        00000000000000000000
NY420349000000910033                                        00000000000000000000
NY420349000000910041Fakturanummer                           00000000000000000000
NY420349000000910042                                        00000000000000000000
NY420349000000910043                                        00000000000000000000
NY420349000000920011Oppdragsgiver                           00000000000000000000
NY420349000000920012EIENDOMSGEBYR/-SKATT                    00000000000000000000
NY420349000000920013                                        00000000000000000000
NY420349000000920021Oppdragsgivers telefonnr.:              00000000000000000000
NY42034900000092002274052500                                00000000000000000000
NY420349000000920023                                        00000000000000000000
NY420349000000920031Termin                                  00000000000000000000
NY4203490000009200323/2009                                  00000000000000000000
NY420349000000920033                                        00000000000000000000
NY420349000000920041Gårds- og bruksnr.:                     00000000000000000000
NY42034900000092004234/  96/    /    /   1                  00000000000000000000
NY420349000000920043                                        00000000000000000000
NY420349000000920051                                        00000000000000000000
NY420349000000920052FJORDVEGEN 13                           00000000000000000000
NY420349000000920053                                        00000000000000000000
NY420349000000930011                                        00000000000000000000
NY420349000000930012                                        00000000000000000000
NY420349000000930013                                        00000000000000000000
NY420349000000930021                                        00000000000000000000
NY420349000000930022                                        00000000000000000000
NY420349000000930023                                        00000000000000000000
NY420349000000930031                                        00000000000000000000
NY420349000000930032                                        00000000000000000000
NY420349000000930033                                        00000000000000000000
NY420349000000930041                                        00000000000000000000
NY420349000000930042                                        00000000000000000000
NY420349000000930043                                        00000000000000000000
NY420349000000940011Fakturakunde                            00000000000000000000
NY420349000000940012                                        00000000000000000000
NY420349000000940013                                        00000000000000000000
NY420349000000940031Varenavn                           Pris 00000000000000000000
NY420349000000940032     Grunnlag    Årsbeløp   Terminbeløp 00000000000000000000
NY420349000000940033                                        00000000000000000000
NY420349000000950011VANN FASTGEBYR                   500,00 00000000000000000000
NY420349000000950012         1,00       500,00       166,67*00000000000000000000
NY420349000000950013                                        00000000000000000000
NY420349000000950021VANN AKONTO                       10,50 00000000000000000000
NY420349000000950022        75,00       787,50       262,50*00000000000000000000
NY420349000000950023                                        00000000000000000000
NY420349000000950031AVLØP FASTGEBYR                  600,00 00000000000000000000
NY420349000000950032         1,00       600,00       200,00*00000000000000000000
NY420349000000950033                                        00000000000000000000
NY420349000000950041AVLØP AKONTO                      15,60 00000000000000000000
NY420349000000950042        75,00      1170,00       390,00*00000000000000000000
NY420349000000950043                                        00000000000000000000
NY420349000000950051EIENDOMSSKATT                      3,50 00000000000000000000
NY420349000000950052    603000,00      2110,50       703,50 00000000000000000000
NY420349000000950053                                        00000000000000000000
NY42034900000095006125% MVA AV KR. 1.019,17 (MERKET *) 254,800000000000000000000
NY4203490000009500620                                       00000000000000000000
NY420349000000950063                                        00000000000000000000
NY420349000000960011Dersom annen betalingsform benyttes, ven00000000000000000000
NY420349000000960012nligst benytt kontonr: 4420 06 01405    00000000000000000000
NY420349000000960013                                        00000000000000000000
NY420349000000960021og vennligst oppgi følgende KID-nummer: 00000000000000000000
NY420349000000960022        00050373016000119               00000000000000000000
NY420349000000960023                                        00000000000000000000
NY4203300000010200909           00000000000303900        00050374016000125000000
NY4203310000010                                                            00000
NY42034000000101LEVANGER KOMMUNE              7601   LEVANGER                 00
NY42034100000101Økonomiavdelinga              POSTBOKS 130                     0
NY42034000000102ALMAAS JON OVE                7623   RONGLAN                  00
NY42034100000102                              PINENGA  9                       0
NY420334000001020.09.2009            3.039,00Faktura                            
NY420335000001000050374                       1020LEVANGER KOMMUNE              
NY4203360000010016290871                24.08.200944200601405NO 938 587 051 MVA0
NY420349000001010011Beløp til forfall                       00000000000000000000
NY420349000001010012                                        00000000000000000000
NY420349000001010013                                        00000000000000000000
NY420349000001010021Forfallsdato                            00000000000000000000
NY420349000001010022                                        00000000000000000000
NY420349000001010023                                        00000000000000000000
NY420349000001010031Fakturadato                             00000000000000000000
NY420349000001010032                                        00000000000000000000
NY420349000001010033                                        00000000000000000000
NY420349000001010041Fakturanummer                           00000000000000000000
NY420349000001010042                                        00000000000000000000
NY420349000001010043                                        00000000000000000000
NY420349000001020011Oppdragsgiver                           00000000000000000000
NY420349000001020012EIENDOMSGEBYR/-SKATT                    00000000000000000000
NY420349000001020013                                        00000000000000000000
NY420349000001020021Oppdragsgivers telefonnr.:              00000000000000000000
NY42034900000102002274052500                                00000000000000000000
NY420349000001020023                                        00000000000000000000
NY420349000001020031Termin                                  00000000000000000000
NY4203490000010200323/2009                                  00000000000000000000
NY420349000001020033                                        00000000000000000000
NY420349000001020041Gårds- og bruksnr.:                     00000000000000000000
NY42034900000102004273/  25/    /    /   1                  00000000000000000000
NY420349000001020043                                        00000000000000000000
NY420349000001020051                                        00000000000000000000
NY420349000001020052PINENGA  9                              00000000000000000000
NY420349000001020053                                        00000000000000000000
NY420349000001030011                                        00000000000000000000
NY420349000001030012                                        00000000000000000000
NY420349000001030013                                        00000000000000000000
NY420349000001030021                                        00000000000000000000
NY420349000001030022                                        00000000000000000000
NY420349000001030023                                        00000000000000000000
NY420349000001030031                                        00000000000000000000
NY420349000001030032                                        00000000000000000000
NY420349000001030033                                        00000000000000000000
NY420349000001030041                                        00000000000000000000
NY420349000001030042                                        00000000000000000000
NY420349000001030043                                        00000000000000000000
NY420349000001040011Fakturakunde                            00000000000000000000
NY420349000001040012                                        00000000000000000000
NY420349000001040013                                        00000000000000000000
NY420349000001040031Varenavn                           Pris 00000000000000000000
NY420349000001040032     Grunnlag    Årsbeløp   Terminbeløp 00000000000000000000
NY420349000001040033                                        00000000000000000000
NY420349000001050011VANN FASTGEBYR                   500,00 00000000000000000000
NY420349000001050012         1,00       500,00       166,67*00000000000000000000
NY420349000001050013                                        00000000000000000000
NY420349000001050021VANN AKONTO                       10,50 00000000000000000000
NY420349000001050022       150,00      1575,00       525,00*00000000000000000000
NY420349000001050023                                        00000000000000000000
NY420349000001050031AVLØP FASTGEBYR                  600,00 00000000000000000000
NY420349000001050032         1,00       600,00       200,00*00000000000000000000
NY420349000001050033                                        00000000000000000000
NY420349000001050041AVLØP AKONTO                      15,60 00000000000000000000
NY420349000001050042       150,00      2340,00       780,00*00000000000000000000
NY420349000001050043                                        00000000000000000000
NY420349000001050051EIENDOMSSKATT                      0,00 00000000000000000000
NY420349000001050052         0,00         0,00       949,67 00000000000000000000
NY420349000001050053                                        00000000000000000000
NY420349000001050061      814 000,00 Taks     3,50   1/1 01000000000000000000000
NY420349000001050062909-311209                              00000000000000000000
NY420349000001050063                                        00000000000000000000
NY42034900000105007125% MVA AV KR. 1.671,67 (MERKET *) 417,900000000000000000000
NY4203490000010500722                                       00000000000000000000
NY420349000001050073                                        00000000000000000000
NY420349000001060011Dersom annen betalingsform benyttes, ven00000000000000000000
NY420349000001060012nligst benytt kontonr: 4420 06 01405    00000000000000000000
NY420349000001060013                                        00000000000000000000
NY420349000001060021og vennligst oppgi følgende KID-nummer: 00000000000000000000
NY420349000001060022        00050374016000125               00000000000000000000
NY420349000001060023                                        00000000000000000000
NY4203300000011200909           00000000000061900        00050380016000106000000
NY4203310000011                                                            00000
NY42034000000111LEVANGER KOMMUNE              7601   LEVANGER                 00
NY42034100000111Økonomiavdelinga              POSTBOKS 130                     0
NY42034000000112ALSTAD NILS                   7600   LEVANGER                 00
NY42034100000112                              OKKENHAUG                        0
NY420334000001120.09.2009              619,00Faktura                            
NY420335000001100050380                       0020LEVANGER KOMMUNE              
NY4203360000011016295046                24.08.200944200601405NO 938 587 051 MVA0
NY420349000001110011Beløp til forfall                       00000000000000000000
NY420349000001110012                                        00000000000000000000
NY420349000001110013                                        00000000000000000000
NY420349000001110021Forfallsdato                            00000000000000000000
NY420349000001110022                                        00000000000000000000
NY420349000001110023                                        00000000000000000000
NY420349000001110031Fakturadato                             00000000000000000000
NY420349000001110032                                        00000000000000000000
NY420349000001110033                                        00000000000000000000
NY420349000001110041Fakturanummer                           00000000000000000000
NY420349000001110042                                        00000000000000000000
NY420349000001110043                                        00000000000000000000
NY420349000001120011Oppdragsgiver                           00000000000000000000
NY420349000001120012EIENDOMSGEBYR/-SKATT                    00000000000000000000
NY420349000001120013                                        00000000000000000000
NY420349000001120021Oppdragsgivers telefonnr.:              00000000000000000000
NY42034900000112002274052500                                00000000000000000000
NY420349000001120023                                        00000000000000000000
NY420349000001120031Termin                                  00000000000000000000
NY4203490000011200323/2009                                  00000000000000000000
NY420349000001120033                                        00000000000000000000
NY420349000001120041Gårds- og bruksnr.:                     00000000000000000000
NY420349000001120042297/   7/    /    /   1                 00000000000000000000
NY420349000001120043                                        00000000000000000000
NY420349000001120051                                        00000000000000000000
NY420349000001120052NYBØ OKKENHAUG                          00000000000000000000
NY420349000001120053                                        00000000000000000000
NY420349000001130011                                        00000000000000000000
NY420349000001130012                                        00000000000000000000
NY420349000001130013                                        00000000000000000000
NY420349000001130021                                        00000000000000000000
NY420349000001130022                                        00000000000000000000
NY420349000001130023                                        00000000000000000000
NY420349000001130031                                        00000000000000000000
NY420349000001130032                                        00000000000000000000
NY420349000001130033                                        00000000000000000000
NY420349000001130041                                        00000000000000000000
NY420349000001130042                                        00000000000000000000
NY420349000001130043                                        00000000000000000000
NY420349000001140011Fakturakunde                            00000000000000000000
NY420349000001140012                                        00000000000000000000
NY420349000001140013                                        00000000000000000000
NY420349000001140031Varenavn                           Pris 00000000000000000000
NY420349000001140032     Grunnlag    Årsbeløp   Terminbeløp 00000000000000000000
NY420349000001140033                                        00000000000000000000
NY420349000001150011EIENDOMSSKATT                      0,00 00000000000000000000
NY420349000001150012         0,00         0,00       619,50 00000000000000000000
NY420349000001150013                                        00000000000000000000
NY420349000001150021      531 000,00 Taks     3,50   1/1 01000000000000000000000
NY420349000001150022909-311209                              00000000000000000000
NY420349000001150023                                        00000000000000000000
NY420349000001160011Dersom annen betalingsform benyttes, ven00000000000000000000
NY420349000001160012nligst benytt kontonr: 4420 06 01405    00000000000000000000
NY420349000001160013                                        00000000000000000000
NY420349000001160021og vennligst oppgi følgende KID-nummer: 00000000000000000000
NY420349000001160022        00050380016000106               00000000000000000000
NY420349000001160023                                        00000000000000000000
NY4203300000012200909           00000000000326200        00050386016000111000000
NY4203310000012                                                            00000
NY42034000000121LEVANGER KOMMUNE              7601   LEVANGER                 00
NY42034100000121Økonomiavdelinga              POSTBOKS 130                     0
NY42034000000122ALSTAD PER JOHAN              7601   LEVANGER                 00
NY42034100000122POSTBOKS 54                                                    0
NY420334000001220.09.2009            3.262,00Faktura                            
NY420335000001200050386                       0020LEVANGER KOMMUNE              
NY4203360000012016294495                24.08.200944200601405NO 938 587 051 MVA0
NY420349000001210011Beløp til forfall                       00000000000000000000
NY420349000001210012                                        00000000000000000000
NY420349000001210013                                        00000000000000000000
NY420349000001210021Forfallsdato                            00000000000000000000
NY420349000001210022                                        00000000000000000000
NY420349000001210023                                        00000000000000000000
NY420349000001210031Fakturadato                             00000000000000000000
NY420349000001210032                                        00000000000000000000
NY420349000001210033                                        00000000000000000000
NY420349000001210041Fakturanummer                           00000000000000000000
NY420349000001210042                                        00000000000000000000
NY420349000001210043                                        00000000000000000000
NY420349000001220011Oppdragsgiver                           00000000000000000000
NY420349000001220012EIENDOMSGEBYR/-SKATT                    00000000000000000000
NY420349000001220013                                        00000000000000000000
NY420349000001220021Oppdragsgivers telefonnr.:              00000000000000000000
NY42034900000122002274052500                                00000000000000000000
NY420349000001220023                                        00000000000000000000
NY420349000001220031Termin                                  00000000000000000000
NY4203490000012200323/2009                                  00000000000000000000
NY420349000001220033                                        00000000000000000000
NY420349000001220041Gårds- og bruksnr.:                     00000000000000000000
NY420349000001220042275/ 663/    /    /   1                 00000000000000000000
NY420349000001220043                                        00000000000000000000
NY420349000001220051                                        00000000000000000000
NY420349000001220052FAGERBAKKVEGEN  9                       00000000000000000000
NY420349000001220053                                        00000000000000000000
NY420349000001230011                                        00000000000000000000
NY420349000001230012                                        00000000000000000000
NY420349000001230013                                        00000000000000000000
NY420349000001230021                                        00000000000000000000
NY420349000001230022                                        00000000000000000000
NY420349000001230023                                        00000000000000000000
NY420349000001230031                                        00000000000000000000
NY420349000001230032                                        00000000000000000000
NY420349000001230033                                        00000000000000000000
NY420349000001230041                                        00000000000000000000
NY420349000001230042                                        00000000000000000000
NY420349000001230043                                        00000000000000000000
NY420349000001240011Fakturakunde                            00000000000000000000
NY420349000001240012                                        00000000000000000000
NY420349000001240013                                        00000000000000000000
NY420349000001240031Varenavn                           Pris 00000000000000000000
NY420349000001240032     Grunnlag    Årsbeløp   Terminbeløp 00000000000000000000
NY420349000001240033                                        00000000000000000000
NY420349000001250011VANN FASTGEBYR                   500,00 00000000000000000000
NY420349000001250012         1,00       500,00       166,67*00000000000000000000
NY420349000001250013                                        00000000000000000000
NY420349000001250021VANN AKONTO                       10,50 00000000000000000000
NY420349000001250022       120,00      1260,00       420,00*00000000000000000000
NY420349000001250023                                        00000000000000000000
NY420349000001250031AVLØP FASTGEBYR                  600,00 00000000000000000000
NY420349000001250032         1,00       600,00       200,00*00000000000000000000
NY420349000001250033                                        00000000000000000000
NY420349000001250041AVLØP AKONTO                      15,60 00000000000000000000
NY420349000001250042       120,00      1872,00       624,00*00000000000000000000
NY420349000001250043                                        00000000000000000000
NY420349000001250051EIENDOMSSKATT                      3,50 00000000000000000000
NY420349000001250052   1285000,00      4497,50      1499,17 00000000000000000000
NY420349000001250053                                        00000000000000000000
NY42034900000125006125% MVA AV KR. 1.410,67 (MERKET *) 352,600000000000000000000
NY4203490000012500627                                       00000000000000000000
NY420349000001250063                                        00000000000000000000
NY420349000001260011Dersom annen betalingsform benyttes, ven00000000000000000000
NY420349000001260012nligst benytt kontonr: 4420 06 01405    00000000000000000000
NY420349000001260013                                        00000000000000000000
NY420349000001260021og vennligst oppgi følgende KID-nummer: 00000000000000000000
NY420349000001260022        00050386016000111               00000000000000000000
NY420349000001260023                                        00000000000000000000
NY4203300000013200909           00000000000598500        00050386016000129000000
NY4203310000013                                                            00000
NY42034000000131LEVANGER KOMMUNE              7601   LEVANGER                 00
NY42034100000131Økonomiavdelinga              POSTBOKS 130                     0
NY42034000000132ALSTAD PER JOHAN              7601   LEVANGER                 00
NY42034100000132POSTBOKS 54                                                    0
NY420334000001320.09.2009            5.985,00Faktura                            
NY420335000001300050386                       0020LEVANGER KOMMUNE              
NY4203360000013016295805                24.08.200944200601405NO 938 587 051 MVA0
NY420349000001310011Beløp til forfall                       00000000000000000000
NY420349000001310012                                        00000000000000000000
NY420349000001310013                                        00000000000000000000
NY420349000001310021Forfallsdato                            00000000000000000000
NY420349000001310022                                        00000000000000000000
NY420349000001310023                                        00000000000000000000
NY420349000001310031Fakturadato                             00000000000000000000
NY420349000001310032                                        00000000000000000000
NY420349000001310033                                        00000000000000000000
NY420349000001310041Fakturanummer                           00000000000000000000
NY420349000001310042                                        00000000000000000000
NY420349000001310043                                        00000000000000000000
NY420349000001320011Oppdragsgiver                           00000000000000000000
NY420349000001320012EIENDOMSGEBYR/-SKATT                    00000000000000000000
NY420349000001320013                                        00000000000000000000
NY420349000001320021Oppdragsgivers telefonnr.:              00000000000000000000
NY42034900000132002274052500                                00000000000000000000
NY420349000001320023                                        00000000000000000000
NY420349000001320031Termin                                  00000000000000000000
NY4203490000013200323/2009                                  00000000000000000000
NY420349000001320033                                        00000000000000000000
NY420349000001320041Gårds- og bruksnr.:                     00000000000000000000
NY420349000001320042315/  64/    /  17/   1                 00000000000000000000
NY420349000001320043                                        00000000000000000000
NY420349000001320051                                        00000000000000000000
NY420349000001320052JERNBANEGATA 15                         00000000000000000000
NY420349000001320053                                        00000000000000000000
NY420349000001330011                                        00000000000000000000
NY420349000001330012                                        00000000000000000000
NY420349000001330013                                        00000000000000000000
NY420349000001330021                                        00000000000000000000
NY420349000001330022                                        00000000000000000000
NY420349000001330023                                        00000000000000000000
NY420349000001330031                                        00000000000000000000
NY420349000001330032                                        00000000000000000000
NY420349000001330033                                        00000000000000000000
NY420349000001330041                                        00000000000000000000
NY420349000001330042                                        00000000000000000000
NY420349000001330043                                        00000000000000000000
NY420349000001340011Fakturakunde                            00000000000000000000
NY420349000001340012                                        00000000000000000000
NY420349000001340013                                        00000000000000000000
NY420349000001340031Varenavn                           Pris 00000000000000000000
NY420349000001340032     Grunnlag    Årsbeløp   Terminbeløp 00000000000000000000
NY420349000001340033                                        00000000000000000000
NY420349000001350011VANN AREAL                        10,50 00000000000000000000
NY420349000001350012       345,00      3622,50      1207,50*00000000000000000000
NY420349000001350013                                        00000000000000000000
NY420349000001350021VANN OPPRETTING                    1,00 00000000000000000000
NY420349000001350022       570,00       570,00       570,00*00000000000000000000
NY420349000001350023                                        00000000000000000000
NY420349000001350031Vann areal juli og august               00000000000000000000
NY420349000001350032                                        00000000000000000000
NY420349000001350033                                        00000000000000000000
NY420349000001350041AVLØP AREAL                       15,60 00000000000000000000
NY420349000001350042       345,00      5382,00      1794,00*00000000000000000000
NY420349000001350043                                        00000000000000000000
NY420349000001350051AVLØP OPPRETTING                   1,00 00000000000000000000
NY420349000001350052       850,00       850,00       850,00*00000000000000000000
NY420349000001350053                                        00000000000000000000
NY420349000001350061Avløp areal juli og august              00000000000000000000
NY420349000001350062                                        00000000000000000000
NY420349000001350063                                        00000000000000000000
NY420349000001350071VANN FASTGEBYR                   500,00 00000000000000000000
NY420349000001350072         1,00       500,00       166,67*00000000000000000000
NY420349000001350073                                        00000000000000000000
NY420349000001350081AVLØP FASTGEBYR                  600,00 00000000000000000000
NY420349000001350082         1,00       600,00       200,00*00000000000000000000
NY420349000001350083                                        00000000000000000000
NY42034900000135009125% MVA AV KR. 4.788,17 (MERKET *) 1.19700000000000000000000
NY420349000001350092,05                                     00000000000000000000
NY420349000001350093                                        00000000000000000000
NY420349000001360011Dersom annen betalingsform benyttes, ven00000000000000000000
NY420349000001360012nligst benytt kontonr: 4420 06 01405    00000000000000000000
NY420349000001360013                                        00000000000000000000
NY420349000001360021og vennligst oppgi følgende KID-nummer: 00000000000000000000
NY420349000001360022        00050386016000129               00000000000000000000
NY420349000001360023                                        00000000000000000000
NY4203300000014200909           00000000000014100        00050388016000158000000
NY4203310000014                                                            00000
NY42034000000141LEVANGER KOMMUNE              7601   LEVANGER                 00
NY42034100000141Økonomiavdelinga              POSTBOKS 130                     0
NY42034000000142ALSTAD STEINAR J              7600   LEVANGER                 00
NY42034100000142                              SKOGSET OKKENHAUG                0
NY420334000001420.09.2009              141,00Faktura                            
NY420335000001400050388                       0020LEVANGER KOMMUNE              
NY4203360000014016296222                24.08.200944200601405NO 938 587 051 MVA0
NY420349000001410011Beløp til forfall                       00000000000000000000
NY420349000001410012                                        00000000000000000000
NY420349000001410013                                        00000000000000000000
NY420349000001410021Forfallsdato                            00000000000000000000
NY420349000001410022                                        00000000000000000000
NY420349000001410023                                        00000000000000000000
NY420349000001410031Fakturadato                             00000000000000000000
NY420349000001410032                                        00000000000000000000
NY420349000001410033                                        00000000000000000000
NY420349000001410041Fakturanummer                           00000000000000000000
NY420349000001410042                                        00000000000000000000
NY420349000001410043                                        00000000000000000000
NY420349000001420011Oppdragsgiver                           00000000000000000000
NY420349000001420012EIENDOMSGEBYR/-SKATT                    00000000000000000000
NY420349000001420013                                        00000000000000000000
NY420349000001420021Oppdragsgivers telefonnr.:              00000000000000000000
NY42034900000142002274052500                                00000000000000000000
NY420349000001420023                                        00000000000000000000
NY420349000001420031Termin                                  00000000000000000000
NY4203490000014200323/2009                                  00000000000000000000
NY420349000001420033                                        00000000000000000000
NY420349000001420041Gårds- og bruksnr.:                     00000000000000000000
NY420349000001420042316/   1/ 134/    /   1                 00000000000000000000
NY420349000001420043                                        00000000000000000000
NY420349000001420051                                        00000000000000000000
NY420349000001420052FROL BYGDEALMENNING                     00000000000000000000
NY420349000001420053                                        00000000000000000000
NY420349000001430011                                        00000000000000000000
NY420349000001430012                                        00000000000000000000
NY420349000001430013                                        00000000000000000000
NY420349000001430021                                        00000000000000000000
NY420349000001430022                                        00000000000000000000
NY420349000001430023                                        00000000000000000000
NY420349000001430031                                        00000000000000000000
NY420349000001430032                                        00000000000000000000
NY420349000001430033                                        00000000000000000000
NY420349000001430041                                        00000000000000000000
NY420349000001430042                                        00000000000000000000
NY420349000001430043                                        00000000000000000000
NY420349000001440011Fakturakunde                            00000000000000000000
NY420349000001440012                                        00000000000000000000
NY420349000001440013                                        00000000000000000000
NY420349000001440031Varenavn                           Pris 00000000000000000000
NY420349000001440032     Grunnlag    Årsbeløp   Terminbeløp 00000000000000000000
NY420349000001440033                                        00000000000000000000
NY420349000001450011EIENDOMSSKATT                      0,00 00000000000000000000
NY420349000001450012         0,00         0,00       141,17 00000000000000000000
NY420349000001450013                                        00000000000000000000
NY420349000001450021      121 000,00 Taks     3,50   1/1 01000000000000000000000
NY420349000001450022909-311209                              00000000000000000000
NY420349000001450023                                        00000000000000000000
NY420349000001460011Dersom annen betalingsform benyttes, ven00000000000000000000
NY420349000001460012nligst benytt kontonr: 4420 06 01405    00000000000000000000
NY420349000001460013                                        00000000000000000000
NY420349000001460021og vennligst oppgi følgende KID-nummer: 00000000000000000000
NY420349000001460022        00050388016000158               00000000000000000000
NY420349000001460023                                        00000000000000000000
NY4203300000015200909           00000000000403300        00050412016000115000000
NY4203310000015                                                            00000
NY42034000000151LEVANGER KOMMUNE              7601   LEVANGER                 00
NY42034100000151Økonomiavdelinga              POSTBOKS 130                     0
NY42034000000152ANDERSEN SIGBJØRN             7600   LEVANGER                 00
NY42034100000152                              BRANESVEGEN  3                   0
NY420334000001520.09.2009            4.033,00Faktura                            
NY420335000001500050412                       0020LEVANGER KOMMUNE              
NY4203360000015016295311                24.08.200944200601405NO 938 587 051 MVA0
NY420349000001510011Beløp til forfall                       00000000000000000000
NY420349000001510012                                        00000000000000000000
NY420349000001510013                                        00000000000000000000
NY420349000001510021Forfallsdato                            00000000000000000000
NY420349000001510022                                        00000000000000000000
NY420349000001510023                                        00000000000000000000
NY420349000001510031Fakturadato                             00000000000000000000
NY420349000001510032                                        00000000000000000000
NY420349000001510033                                        00000000000000000000
NY420349000001510041Fakturanummer                           00000000000000000000
NY420349000001510042                                        00000000000000000000
NY420349000001510043                                        00000000000000000000
NY420349000001520011Oppdragsgiver                           00000000000000000000
NY420349000001520012EIENDOMSGEBYR/-SKATT                    00000000000000000000
NY420349000001520013                                        00000000000000000000
NY420349000001520021Oppdragsgivers telefonnr.:              00000000000000000000
NY42034900000152002274052500                                00000000000000000000
NY420349000001520023                                        00000000000000000000
NY420349000001520031Termin                                  00000000000000000000
NY4203490000015200323/2009                                  00000000000000000000
NY420349000001520033                                        00000000000000000000
NY420349000001520041Gårds- og bruksnr.:                     00000000000000000000
NY420349000001520042314/  17/    /    /   1                 00000000000000000000
NY420349000001520043                                        00000000000000000000
NY420349000001520051                                        00000000000000000000
NY420349000001520052BRANESVEGEN  3                          00000000000000000000
NY420349000001520053                                        00000000000000000000
NY420349000001530011                                        00000000000000000000
NY420349000001530012                                        00000000000000000000
NY420349000001530013                                        00000000000000000000
NY420349000001530021                                        00000000000000000000
NY420349000001530022                                        00000000000000000000
NY420349000001530023                                        00000000000000000000
NY420349000001530031                                        00000000000000000000
NY420349000001530032                                        00000000000000000000
NY420349000001530033                                        00000000000000000000
NY420349000001530041                                        00000000000000000000
NY420349000001530042                                        00000000000000000000
NY420349000001530043                                        00000000000000000000
NY420349000001540011Fakturakunde                            00000000000000000000
NY420349000001540012                                        00000000000000000000
NY420349000001540013                                        00000000000000000000
NY420349000001540031Varenavn                           Pris 00000000000000000000
NY420349000001540032     Grunnlag    Årsbeløp   Terminbeløp 00000000000000000000
NY420349000001540033                                        00000000000000000000
NY420349000001550011VANN AREAL                        10,50 00000000000000000000
NY420349000001550012       240,00      2520,00       840,00*00000000000000000000
NY420349000001550013                                        00000000000000000000
NY420349000001550021AVLØP AREAL                       15,60 00000000000000000000
NY420349000001550022       240,00      3744,00      1248,00*00000000000000000000
NY420349000001550023                                        00000000000000000000
NY420349000001550031VANN FASTGEBYR                   500,00 00000000000000000000
NY420349000001550032         1,00       500,00       166,67*00000000000000000000
NY420349000001550033                                        00000000000000000000
NY420349000001550041AVLØP FASTGEBYR                  600,00 00000000000000000000
NY420349000001550042         1,00       600,00       200,00*00000000000000000000
NY420349000001550043                                        00000000000000000000
NY420349000001550051EIENDOMSSKATT                      3,50 00000000000000000000
NY420349000001550052    827000,00      2894,50       964,83 00000000000000000000
NY420349000001550053                                        00000000000000000000
NY42034900000155006125% MVA AV KR. 2.454,67 (MERKET *) 613,600000000000000000000
NY4203490000015500627                                       00000000000000000000
NY420349000001550063                                        00000000000000000000
NY420349000001560011Dersom annen betalingsform benyttes, ven00000000000000000000
NY420349000001560012nligst benytt kontonr: 4420 06 01405    00000000000000000000
NY420349000001560013                                        00000000000000000000
NY420349000001560021og vennligst oppgi følgende KID-nummer: 00000000000000000000
NY420349000001560022        00050412016000115               00000000000000000000
NY420349000001560023                                        00000000000000000000
NY4203300000016200909           00000000000100500        00050422016000106000000
NY4203310000016                                                            00000
NY42034000000161LEVANGER KOMMUNE              7601   LEVANGER                 00
NY42034100000161Økonomiavdelinga              POSTBOKS 130                     0
NY42034000000162ANDREASSEN BRIT EVA           7600   LEVANGER                 00
NY42034100000162                              SKÅNES SØNDRE MULE               0
NY420334000001620.09.2009            1.005,00Faktura                            
NY420335000001600050422                       0020LEVANGER KOMMUNE              
NY4203360000016016293543                24.08.200944200601405NO 938 587 051 MVA0
NY420349000001610011Beløp til forfall                       00000000000000000000
NY420349000001610012                                        00000000000000000000
NY420349000001610013                                        00000000000000000000
NY420349000001610021Forfallsdato                            00000000000000000000
NY420349000001610022                                        00000000000000000000
NY420349000001610023                                        00000000000000000000
NY420349000001610031Fakturadato                             00000000000000000000
NY420349000001610032                                        00000000000000000000
NY420349000001610033                                        00000000000000000000
NY420349000001610041Fakturanummer                           00000000000000000000
NY420349000001610042                                        00000000000000000000
NY420349000001610043                                        00000000000000000000
NY420349000001620011Oppdragsgiver                           00000000000000000000
NY420349000001620012EIENDOMSGEBYR/-SKATT                    00000000000000000000
NY420349000001620013                                        00000000000000000000
NY420349000001620021Oppdragsgivers telefonnr.:              00000000000000000000
NY42034900000162002274052500                                00000000000000000000
NY420349000001620023                                        00000000000000000000
NY420349000001620031Termin                                  00000000000000000000
NY4203490000016200323/2009                                  00000000000000000000
NY420349000001620033                                        00000000000000000000
NY420349000001620041Gårds- og bruksnr.:                     00000000000000000000
NY420349000001620042263/   3/    /    /   1                 00000000000000000000
NY420349000001620043                                        00000000000000000000
NY420349000001620051                                        00000000000000000000
NY420349000001620052SKÅNES SØNDRE MULE                      00000000000000000000
NY420349000001620053                                        00000000000000000000
NY420349000001630011                                        00000000000000000000
NY420349000001630012                                        00000000000000000000
NY420349000001630013                                        00000000000000000000
NY420349000001630021                                        00000000000000000000
NY420349000001630022                                        00000000000000000000
NY420349000001630023                                        00000000000000000000
NY420349000001630031                                        00000000000000000000
NY420349000001630032                                        00000000000000000000
NY420349000001630033                                        00000000000000000000
NY420349000001630041                                        00000000000000000000
NY420349000001630042                                        00000000000000000000
NY420349000001630043                                        00000000000000000000
NY420349000001640011Fakturakunde                            00000000000000000000
NY420349000001640012                                        00000000000000000000
NY420349000001640013                                        00000000000000000000
NY420349000001640031Varenavn                           Pris 00000000000000000000
NY420349000001640032     Grunnlag    Årsbeløp   Terminbeløp 00000000000000000000
NY420349000001640033                                        00000000000000000000
NY420349000001650011EIENDOMSSKATT                      3,50 00000000000000000000
NY420349000001650012    862000,00      3017,00      1005,67 00000000000000000000
NY420349000001650013                                        00000000000000000000
NY420349000001660011Dersom annen betalingsform benyttes, ven00000000000000000000
NY420349000001660012nligst benytt kontonr: 4420 06 01405    00000000000000000000
NY420349000001660013                                        00000000000000000000
NY420349000001660021og vennligst oppgi følgende KID-nummer: 00000000000000000000
NY420349000001660022        00050422016000106               00000000000000000000
NY420349000001660023                                        00000000000000000000
NY4203300000017200909           00000000000239800        00050433016000111000000
NY4203310000017                                                            00000
NY42034000000171LEVANGER KOMMUNE              7601   LEVANGER                 00
NY42034100000171Økonomiavdelinga              POSTBOKS 130                     0
NY42034000000172ANDRESEN MORTEN PETTER        7622   MARKABYGDA               00
NY42034100000172STØRINGVEGEN 13               STØRINGVEGEN 13                  0
NY420334000001720.09.2009            2.398,00Faktura                            
NY420335000001700050433                       0020LEVANGER KOMMUNE              
NY4203360000017016291382                24.08.200944200601405NO 938 587 051 MVA0
NY420349000001710011Beløp til forfall                       00000000000000000000
NY420349000001710012                                        00000000000000000000
NY420349000001710013                                        00000000000000000000
NY420349000001710021Forfallsdato                            00000000000000000000
NY420349000001710022                                        00000000000000000000
NY420349000001710023                                        00000000000000000000
NY420349000001710031Fakturadato                             00000000000000000000
NY420349000001710032                                        00000000000000000000
NY420349000001710033                                        00000000000000000000
NY420349000001710041Fakturanummer                           00000000000000000000
NY420349000001710042                                        00000000000000000000
NY420349000001710043                                        00000000000000000000
NY420349000001720011Oppdragsgiver                           00000000000000000000
NY420349000001720012EIENDOMSGEBYR/-SKATT                    00000000000000000000
NY420349000001720013                                        00000000000000000000
NY420349000001720021Oppdragsgivers telefonnr.:              00000000000000000000
NY42034900000172002274052500                                00000000000000000000
NY420349000001720023                                        00000000000000000000
NY420349000001720031Termin                                  00000000000000000000
NY4203490000017200323/2009                                  00000000000000000000
NY420349000001720033                                        00000000000000000000
NY420349000001720041Gårds- og bruksnr.:                     00000000000000000000
NY420349000001720042126/  30/    /    /   1                 00000000000000000000
NY420349000001720043                                        00000000000000000000
NY420349000001720051                                        00000000000000000000
NY420349000001720052STØRINGVEGEN 13                         00000000000000000000
NY420349000001720053                                        00000000000000000000
NY420349000001730011                                        00000000000000000000
NY420349000001730012                                        00000000000000000000
NY420349000001730013                                        00000000000000000000
NY420349000001730021                                        00000000000000000000
NY420349000001730022                                        00000000000000000000
NY420349000001730023                                        00000000000000000000
NY420349000001730031                                        00000000000000000000
NY420349000001730032                                        00000000000000000000
